{
  "_format": "hh-sol-artifact-1",
  "contractName": "Counter",
  "sourceName": "contracts/Counter.sol",
  "abi": [
    {
      "inputs": [],
      "name": "inc",
      "outputs": [],
      "stateMutability": "nonpayable",
      "type": "function"
    },
    {
      "inputs": [],
      "name": "value",
      "outputs": [
        {
          "internalType": "uint256",
          "name": "",
          "type": "uint256"
        }
      ],
      "stateMutability": "view",
      "type": "function"
    }
  ],
  "bytecode": "0x608060405234801561001057600080fd5b5060cc8061001f6000396000f3fe6080604052348015600f57600080fd5b506004361060325760003560e01c8063371303c01460375780633fa4f24514603f575b600080fd5b603d6059565b005b604760005481565b60405190815260200160405180910390f35b6001600080828254606991906070565b9091555050565b80820180821115609057634e487b7160e01b600052601160045260246000fd5b9291505056fea2646970667358221220566e6736cf3834cd5c104b86c8af8266f358a9737795684e4cd122ca4d3d67f864736f6c63430008180033",
  "linkReferences": {},
  "deployedLinkReferences": {}
}